{
    "contractName": "PostBox",
    "abi": [
        {
            "inputs": [
                {
                    "internalType": "address",
                    "name": "_addr",
                    "type": "address"
                },
                {
                    "internalType": "uint256",
                    "name": "_i",
                    "type": "uint256"
                }
            ],
            "name": "add",
            "outputs": [],
            "stateMutability": "nonpayable",
            "type": "function"
        },
        {
            "inputs": [
                {
                    "internalType": "address",
                    "name": "_addr",
                    "type": "address"
                }
            ],
            "name": "deposit",
            "outputs": [],
            "stateMutability": "payable",
            "type": "function"
        },
        {
            "inputs": [],
            "name": "peek",
            "outputs": [
                {
                    "internalType": "uint256",
                    "name": "",
                    "type": "uint256"
                }
            ],
            "stateMutability": "view",
            "type": "function"
        },
        {
            "inputs": [],
            "name": "retrieve",
            "outputs": [],
            "stateMutability": "nonpayable",
            "type": "function"
        }
    ],
    "bytecode": "608060405234801561001057600080fd5b506102a8806100206000396000f3fe60806040526004361061003f5760003560e01c80632e64cec11461004457806359e02dd71461005b578063f340fa011461008a578063f5d82b6b1461009d575b600080fd5b34801561005057600080fd5b506100596100bd565b005b34801561006757600080fd5b503360009081526020819052604090205460405190815260200160405180910390f35b6100596100983660046101ff565b61015f565b3480156100a957600080fd5b506100596100b8366004610221565b61019f565b336000818152602081905260408082205490519192918381818185875af1925050503d806000811461010b576040519150601f19603f3d011682016040523d82523d6000602084013e610110565b606091505b505090508061015c5760405162461bcd60e51b81526020600482015260146024820152732330b4b632b2103a379039b2b7321022ba3432b960611b604482015260640160405180910390fd5b50565b6001600160a01b03811660009081526020819052604090205461018390349061024b565b6001600160a01b03909116600090815260208190526040902055565b6001600160a01b0382166000908152602081905260409020546101c390829061024b565b6001600160a01b0390921660009081526020819052604090209190915550565b80356001600160a01b03811681146101fa57600080fd5b919050565b60006020828403121561021157600080fd5b61021a826101e3565b9392505050565b6000806040838503121561023457600080fd5b61023d836101e3565b946020939093013593505050565b8082018082111561026c57634e487b7160e01b600052601160045260246000fd5b9291505056fea2646970667358221220e10816059a534ac15966c72d5b635304ca64a2c9f2116e64ac609f539be1b74164736f6c63430008110033",
    "sourcePath": "c:/Users/zkreu/OneDrive - University of South Carolina/Hobby.Directory/PostBox/test.sol",
    "compiler": {
        "name": "solc",
        "version": "0.8.17+commit.8df45f5f"
    },
    "functionHashes": {
        "add(address,uint256)": "f5d82b6b",
        "deposit(address)": "f340fa01",
        "peek()": "59e02dd7",
        "retrieve()": "2e64cec1"
    },
    "gasEstimates": {
        "creation": {
            "codeDepositCost": "136000",
            "executionCost": "183",
            "totalCost": "136183"
        },
        "external": {
            "add(address,uint256)": "24845",
            "deposit(address)": "24766",
            "peek()": "2339",
            "retrieve()": "infinite"
        }
    }
}