{
    "contractName": "PostBox",
    "abi": [
        {
            "inputs": [],
            "stateMutability": "nonpayable",
            "type": "constructor"
        },
        {
            "inputs": [
                {
                    "internalType": "uint256",
                    "name": "val1",
                    "type": "uint256"
                },
                {
                    "internalType": "uint256",
                    "name": "val2",
                    "type": "uint256"
                }
            ],
            "name": "mismatch",
            "type": "error"
        },
        {
            "inputs": [
                {
                    "internalType": "uint256",
                    "name": "val1",
                    "type": "uint256"
                },
                {
                    "internalType": "uint256",
                    "name": "val2",
                    "type": "uint256"
                }
            ],
            "name": "overflow",
            "type": "error"
        },
        {
            "inputs": [
                {
                    "internalType": "address",
                    "name": "dest",
                    "type": "address"
                },
                {
                    "internalType": "uint256",
                    "name": "val",
                    "type": "uint256"
                }
            ],
            "name": "transferFail",
            "type": "error"
        },
        {
            "inputs": [],
            "name": "unauthorized",
            "type": "error"
        },
        {
            "inputs": [
                {
                    "internalType": "address",
                    "name": "_addr",
                    "type": "address"
                }
            ],
            "name": "deposit",
            "outputs": [],
            "stateMutability": "payable",
            "type": "function"
        },
        {
            "inputs": [
                {
                    "internalType": "address[]",
                    "name": "addresses",
                    "type": "address[]"
                },
                {
                    "internalType": "uint256[]",
                    "name": "amounts",
                    "type": "uint256[]"
                }
            ],
            "name": "multiDeposit",
            "outputs": [],
            "stateMutability": "payable",
            "type": "function"
        },
        {
            "inputs": [],
            "name": "peek",
            "outputs": [
                {
                    "internalType": "uint256",
                    "name": "",
                    "type": "uint256"
                }
            ],
            "stateMutability": "view",
            "type": "function"
        },
        {
            "inputs": [],
            "name": "retrieve",
            "outputs": [],
            "stateMutability": "nonpayable",
            "type": "function"
        }
    ],
    "bytecode": "608060405234801561001057600080fd5b50600180546001600160a01b03191633179055610580806100326000396000f3fe60806040526004361061003f5760003560e01c806302136415146100445780632e64cec11461005957806359e02dd71461006e578063f340fa011461009d575b600080fd5b61005761005236600461040a565b6100b0565b005b34801561006557600080fd5b506100576101c2565b34801561007a57600080fd5b503360009081526020819052604090205460405190815260200160405180910390f35b6100576100ab3660046104ca565b610254565b6001546001600160a01b031633146100db576040516328c69f2160e11b815260040160405180910390fd5b6000805b835181101561018e578281815181106100fa576100fa6104ec565b6020026020010151600080868481518110610117576101176104ec565b60200260200101516001600160a01b03166001600160a01b03168152602001908152602001600020600082825461014e9190610518565b92505081905550828181518110610167576101676104ec565b60200260200101518261017a9190610518565b91508061018681610531565b9150506100df565b508034146101bd5760405163746b1e8560e01b8152346004820152602481018290526044015b60405180910390fd5b505050565b336000818152602081905260408082205490519192918381818185875af1925050503d8060008114610210576040519150601f19603f3d011682016040523d82523d6000602084013e610215565b606091505b5050905080610251573360008181526020819052604090819020549051635e4659d360e11b8152600481019290925260248201526044016101b4565b50565b6001546001600160a01b0316331461027f576040516328c69f2160e11b815260040160405180910390fd5b6001600160a01b03811660009081526020819052604090205434906102a5908290610518565b10156102e8576001600160a01b038116600090815260208190526040908190205490516377f57c1360e01b815260048101919091523460248201526044016101b4565b6001600160a01b03811660009081526020819052604081208054349290610310908490610518565b909155505050565b634e487b7160e01b600052604160045260246000fd5b604051601f8201601f1916810167ffffffffffffffff8111828210171561035757610357610318565b604052919050565b600067ffffffffffffffff82111561037957610379610318565b5060051b60200190565b80356001600160a01b038116811461039a57600080fd5b919050565b600082601f8301126103b057600080fd5b813560206103c56103c08361035f565b61032e565b82815260059290921b840181019181810190868411156103e457600080fd5b8286015b848110156103ff57803583529183019183016103e8565b509695505050505050565b6000806040838503121561041d57600080fd5b823567ffffffffffffffff8082111561043557600080fd5b818501915085601f83011261044957600080fd5b813560206104596103c08361035f565b82815260059290921b8401810191818101908984111561047857600080fd5b948201945b8386101561049d5761048e86610383565b8252948201949082019061047d565b965050860135925050808211156104b357600080fd5b506104c08582860161039f565b9150509250929050565b6000602082840312156104dc57600080fd5b6104e582610383565b9392505050565b634e487b7160e01b600052603260045260246000fd5b634e487b7160e01b600052601160045260246000fd5b8082018082111561052b5761052b610502565b92915050565b60006001820161054357610543610502565b506001019056fea26469706673582212207fbc54ac7652fea80388cca8e0633bc626bc15fbbabcaacda7df18f7ae1fd37164736f6c63430008110033",
    "sourcePath": "c:/Users/zkreu/OneDrive - University of South Carolina/Hobby.Directory/PostBox/PostBox.sol",
    "compiler": {
        "name": "solc",
        "version": "0.8.17+commit.8df45f5f"
    },
    "functionHashes": {
        "deposit(address)": "f340fa01",
        "multiDeposit(address[],uint256[])": "02136415",
        "peek()": "59e02dd7",
        "retrieve()": "2e64cec1"
    },
    "gasEstimates": {
        "creation": {
            "codeDepositCost": "281600",
            "executionCost": "24553",
            "totalCost": "306153"
        },
        "external": {
            "deposit(address)": "infinite",
            "multiDeposit(address[],uint256[])": "infinite",
            "peek()": "2361",
            "retrieve()": "infinite"
        }
    }
}